:020000040800F2
:1000000038070020650100089D250008AF2300087F
:1000100000000000000000000000000000000000E0
:10002000000000000000000000000000A125000802
:1000300000000000000000009F250008A325000824
:1000400077010008770100087701000877010008B0
:10005000770100087701000877010008AD1000085B
:100060007701000877010008770100087701000890
:1000700077010008770100087701000821260008B1
:1000800077010008770100087701000800000000F0
:100090007701000877010008770100087701000860
:1000A0007701000877010008770100087701000850
:1000B0007701000877010008770100087701000840
:1000C00000F002F800F03EF80CA030C80838241800
:1000D0002D18A246671EAB4654465D46AC4201D180
:1000E00000F030F87E460F3E0FCCB6460126334274
:1000F00000D0FB1AA246AB46334318472428000021
:1001000044280000103A02D378C878C1FAD85207C0
:1001100001D330C830C101D504680C6070470000BD
:100120000023002400250026103A01D378C1FBD813
:10013000520700D330C100D50B6070471FB51FBDFB
:1001400010B510BD00F034FF1146FFF7F7FF02F0C5
:1001500015FB00F04CFF03B4FFF7F2FF03BC00F007
:1001600053FF00000748804707480047FEE7FEE7C7
:10017000FEE7FEE7FEE7FEE704480549054A064BB1
:10018000704700001D260008C1000008380100204B
:10019000380700203803002038030020FEB505464C
:1001A00010460C46184373D0AE468C460020AD1A5C
:1001B00001469C4167D36646002701243D46B61A96
:1001C0009D4102D313463A462124654676462F04C4
:1001D000360C3E432D0CB61A9D4104D3150C1B045E
:1001E0002B4312041034654676462F06360A3E43EA
:1001F0002D0AB61A9D4104D3150E1B022B43120281
:100200000834654676462F0736093E432D09B61A4F
:100210009D4104D3150F1B012B431201241D65467C
:100220007646AF07B6083E43AD08B61A9D4104D3E3
:10023000950F9B002B439200A41C65467646EF0762
:1002400076083E436D08B61A9D411AD392185B4159
:10025000641C16E00018764665464941B71A9D4170
:100260000191009009D36046B11A98418E468446A8
:10027000009801990025401C6941DD0752082A4376
:100280005B08641EE6D57246634603B0F0BDFFE727
:1002900000200146C046C0462A462346F5E701E055
:1002A00004C0091F0429FBD28B0701D50280801CE2
:1002B000C90700D00270704700290BD0C30702D0D5
:1002C0000270401C491E022904D3830702D5028014
:1002D000801C891EE3E70022EEE70022DFE7002210
:1002E00003098B422CD3030A8B4211D300239C4673
:1002F0004EE003460B433CD4002243088B4231D3EB
:1003000003098B421CD3030A8B4201D394463FE07E
:10031000C3098B4201D3CB01C01A524183098B42DE
:1003200001D38B01C01A524143098B4201D34B01C7
:10033000C01A524103098B4201D30B01C01A52412A
:10034000C3088B4201D3CB00C01A524183088B42B1
:1003500001D38B00C01A524143088B4201D34B009A
:10036000C01A5241411A00D201465241104670470C
:100370005DE0CA0F00D04942031000D34042534011
:1003800000229C4603098B422DD3030A8B4212D3D1
:10039000FC22890112BA030A8B420CD38901921103
:1003A0008B4208D3890192118B4204D389013AD040
:1003B000921100E08909C3098B4201D3CB01C01A15
:1003C000524183098B4201D38B01C01A5241430928
:1003D0008B4201D34B01C01A524103098B4201D316
:1003E0000B01C01A5241C3088B4201D3CB00C01A83
:1003F000524183088B4201D38B00C01A5241D9D29B
:1004000043088B4201D34B00C01A5241411A00D21B
:100410000146634652415B10104601D34042002B17
:1004200000D54942704763465B1000D3404201B596
:100430000020C046C04602BD7047704770470000AC
:100440000246C80FC00781434B0030B54B405B00EC
:100450009B0D20D01923DB06C91801231B059942E7
:1004600020DB0324A40704251346AB400BD3002B49
:1004700004D1EB0613409B00E34204D4012464073B
:10048000002312195941FF231B0599420BD2C900C1
:100490000143500F09E0CB0204D501430803024396
:1004A00005D0054830BDFF21C905084330BD0846C9
:1004B00007210905884330BD0000C07FF0B50C4618
:1004C000871A9C410D46861A9D4103D2C01BA1414B
:1004D000D21963410D0D1F0DC94EEC1BAE435CD00C
:1004E0007F057F0D0026002F51D02D05AC46A94376
:1004F000DD020123ED0A1B051D4320231B1B24D411
:100500001746E740381871412F46E740CC199D4007
:100510002818314661410C0D27D161449A4013D50A
:100520000023401C594152000ED1400840000122D6
:100530004B005205D34207D305204007C14201D5E5
:10054000B04900E0B0493046F0BD6B00002A00D051
:1005500001229A181F23203C1B1B01D5002302E017
:10056000E540281871410C0DD7D001242405091944
:10057000C407CD0740084908E40F28436144002C14
:10058000D5D00024401C61419A40D0D1CDE76A0506
:10059000520DD9D1C90FC907D5E79C4D4E0000288F
:1005A00001D0012400E0002434195F00002A01D0AA
:1005B000012600E00026BE19954FAC420CD8AE4291
:1005C0000AD8B44206D001256D05EC42BCD01046D5
:1005D0001946F0BD9942FCD000203946F0BDF0B577
:1005E0001FB40C460F46811A9F412546861A9D412D
:1005F00006D20125ED076F40401ABC4152187B41DD
:10060000210D1E0D8D1BAC467D4D8D437ED0750595
:100610006D0D7CD00D05AE46AC431B031B0B794D15
:1006200052429D41202366469B1B14D31746F74038
:10063000381800260090744160462F460741E4199F
:1006400000989D402818664116D4714671189A404A
:1006500025D5012320E093182A466A415200002B39
:1006600000D0521C1E23203E9B1B002B61DD354118
:10067000EE1728186641E8D5001876415B1C9A40B1
:1006800000D3401C4B05F3181524E34010D3002B76
:1006900052D071467118D30FC01802D3491C05B04F
:1006A000F0BD0123DB079A42F9D140084000F6E78C
:1006B00001225205B21801D1002853D00123CC0ADF
:1006C000DB029943891E002A08D1020C03D0020CD8
:1006D0000004103902E00246002020390023550BA7
:1006E00005D112020823550B01D152010D23550CDF
:1006F00001D112011B1DD50C01D192009B1C150DBF
:1007000001D152005B1C2025EE1A01E02CE022E012
:100710000546F54015439840CA1AE10769181305C4
:10072000C918002ABBDA032040070818C10FC907FF
:100730000FE071466118B2E7F107400808437110F5
:1007400071444A000CD001235B059A42A7D2C90F1D
:10075000C9070020A3E74905490D26D1002001E083
:100760000028F4D100219AE7284D6600002801D026
:10077000012100E0002171185F00002A01D001264C
:1007800000E00026BE19224FA94210D8AE420ED872
:10079000B14208D001256D05E94206D01946A802EC
:1007A000414010467BE79C4201D0214677E700207C
:1007B000394674E710B50C465C4005D50124E407C2
:1007C0006340FFF70CFF10BDFFF778FE10BD30B49B
:1007D0000C465C4004D50124E407634030BC6DE660
:1007E00030BCFCE670B50124E40761400D465D4075
:1007F00002D4FFF763FE70BD6340FFF7F0FE70BDEB
:10080000FF0700000000F0FF0000F07F0000E0FFA5
:100810000000F87FF0B5F94D0C091E092C402E4060
:100820002F468BB0A7437DD0B543FCD0002E7AD0A5
:10083000002CFCD00D465D40ED0F2543AC1BFF2581
:10084000AD0464190894C502440DC9022143500D3A
:10085000DC0204430120C00701430443D20201919A
:10086000200C110C00958C46010423468B430A9101
:1008700061460904E24D8A430991010A7D44491900
:100880008039097805464D4301266D18F605751B1C
:100890006943C90C640B891C4C436418B5012C1BBB
:1008A000250C2E04B4434C434D43210C691889098F
:1008B0000591009DE90701D00121C90704912C464B
:1008C00001996708CD072F434C08059DE10B4D4367
:1008D0002D0C29466646754302950D4645432E4626
:1008E000029D7D1BB44100950D465D4301942C0C87
:1008F0002F040D465543AE462D0C3D4302950394FF
:100900007546049C2D04641B049406D2029C039D2E
:10091000641C002675410395029401AC70CC009FC5
:100920007D1B01E03EE162E1B441090400950791BD
:1009300001940599A4086143090C0C464443650BD6
:10094000E7040C4666467443A646640B3C43039595
:1009500002947446049DE4042C1B049406D2029C69
:10096000039D641C002675410395029401AC70CC74
:10097000009F7D1BB44101940C465C430095650FBC
:10098000E7000C465443A646640F3C43039502948B
:100990007446049DE4002C1B049406D2029C039D23
:1009A000641C002675410395029401AC70CC009F35
:1009B0007D1BB441AE09AF06049DC900AD092F43AC
:1009C000049DA406AD060495079D3443691807915C
:1009D000059DE10B4D432D0C294666467543029556
:1009E0000D4645432E46029D7D1BB44100950D46A4
:1009F0005D4301942C0C2F040D465543AE462D0C3F
:100A00003D43029503947546049C2D04641B049495
:100A100006D2029C039D641C002675410395029436
:100A200001AC70CC009F7D1BB44101948C050694F1
:100A3000079C890A611800950791019C0599A408F3
:100A40006143090C0D464543680BEF040D466446AF
:100A500065436C0B3C43049FED047D1BAC4602D206
:100A60000025641C6841009E019D371B8541084696
:100A7000584301950C46460FC5005443600F284368
:100A80006546E4002C1B02D20025401C6E41019DEE
:100A90003F1AB5412846BD09800628438446A0096F
:100AA000BF064E020699A40676180743079D00204C
:100AB00068410A99079019430020099B00906046FD
:100AC000FF1913434041E20F64003A43A446044631
:100AD000D71A8C41A04203D90120009020463A4603
:100AE000C70F941840416246D20F22436446640007
:100AF0000494009CBE466400D71AA446044602979C
:100B00008C417746002F01D1A04204D96046401C99
:100B10008446029A2046C40FA64694184041049A7F
:100B20000546D20F224364466400D31A8D417146B4
:100B3000002901D1A84202D928461A46641C104354
:100B40000122002800D0164361020020079B89196A
:100B500004465C410223002C02DB49181346644121
:100B6000089DCE0A2D145D194B056705E10A2C0579
:100B70000D1908993E43C9076940002B08D09340DE
:100B800006D30022761C5141002B01D17608760055
:100B90001C4A002D43DB154241D0AA433FD03046CA
:100BA0000BB0F0BD06180D464D41174C7642AC41D6
:100BB0001AD395181C465C41134A6D42A24113D3C7
:100BC000012252054C00D4420AD15C00D4420BD021
:100BD0004B4002D592021143E2E749004908DFE7A2
:100BE0005940C90FC90718E000200849D8E705484F
:100BF00001420DD10342F7D0F2E700000000FF07E9
:100C00001D2000000000F07F0000E0FF0000F87FE2
:100C1000114859400143C01241400020C0E7012360
:100C2000089A9B069A4205DC032252078918C90FCD
:100C3000C907B5E7052252078918074A1143D2129E
:100C40005140ADE770B515461C4602460B46284696
:100C50002146FFF7DFFD70BDFFFFFF7F1F22030C62
:100C600002D10F22000402D0030E03D004E00020C2
:100C7000014670470002083A030F01D10001121F1C
:100C8000830F01D18000921E002801DB4000521E1C
:100C9000120551184205C012411810467047C10F85
:100CA000C90700D04042012292071143D6E7012133
:100CB0008907D3E7F0B58B4C0F09254689B0BD43B2
:100CC0007BD01D092646AE43FAD00E465E40274033
:100CD000F60F3E43254071D024012142FBD0FF2472
:100CE000AD19A4042D1B039501252D05DB02DB0A9C
:100CF000C9022B43C90A29431E010901040F130F1E
:100D0000050121431701880B820391432D098C466D
:100D1000A90B1E438A039543B30B9A0396433F09DD
:100D2000BA0B9403A74302962E467E430497B64619
:100D30004E19D7190C460196544305977E43371B2D
:100D40007646BF1B3601B646BE0B36190096764670
:100D5000BC043719009C01D3641C00946400002F6C
:100D600001D001263443029E049F754366467E43AC
:100D70000496760034196E0034190094029C019E8A
:100D80001C196643751BAE46069465464519059CBD
:100D900005956C43594375460891691A0191049E63
:100DA00001465143A41B0491611A009C0791E1067E
:100DB00005D061090122114302E072E06EE0610991
:100DC000089D00272C0A2D066918049D7C412A0ADB
:100DD0002D066918019D6241AC0DAD026D1854419C
:100DE000079A910D920255196141029A644658433F
:100DF0005443069B059A5A43121A131B9A0E9B01E1
:100E00005B187A41010B0005C3185141220A2006E4
:100E100044195A419A4200D2491C012040028142A1
:100E200003D315230226F64302E014230326F643D8
:100E30002020C51AA9401746AF40DA400A43204691
:100E40000399D8400914731819055118039A3843A7
:100E5000D2075140AC4009D00122944006D3002271
:100E6000401C5141002C01D1400840001E4A9342D1
:100E700012D3012203989206904207DB0520400717
:100E800009181A480143C012414004E003204007FA
:100E90000818C10FC907002009B0F0BD0020F107F4
:100EA000FAE705180C464C4111486D42A04115D394
:100EB00094181A465A410E48644290410ED30120BC
:100EC0004A004005824209D35A00824206D3594063
:100ED000C90F084AC90700201143DDE70020064971
:100EE000DAE700000000FF07FE070000FFFFFF7FBA
:100EF0000000E0FF0000F07F0000F87F70B50546BD
:100F00004800440D124B0020002C0AD0634008D04A
:100F10009A4206DA6642B24203DD12054019514197
:100F200070BD002C08D0002B09D0C90FC907002ABA
:100F3000F6DB084A114370BDC90FC90770BD2846CA
:100F40000A03104302D00020034970BD284670BD3B
:100F5000FF0700000000F07F0000F87F0121C905B5
:100F60000123411842001B06D3185B0E0AD0C110A2
:100F70000722D206891840075242D14201D55200B9
:100F800089187047090208D50146002A03D0C10F0D
:100F9000C9070020704710467047420202D0002067
:100FA00002497047072109050143F4E70000F87F73
:100FB000754600F025F8AE46050069465346C00860
:100FC000C000854618B020B5FFF7D6F860BC0027F2
:100FD0004908B6460026C0C5C0C5C0C5C0C5C0C505
:100FE000C0C5C0C5C0C5403D49008D46704710B55D
:100FF0000446C046C0462046FFF7ADF810BD0000CD
:1010000000487047D800002001491820ABBEFEE719
:10101000260002007047000038B50446064805491E
:101020000068FFF75CF9604300E0401E0090002874
:10103000FBD138BD40420F0024000020F8B5044623
:10104000006881688907890F012902D10168C907F1
:1010500027D18168144A102611400125002913D197
:101060008168294381600120FFF7D6FF00F012FC60
:10107000074611E000F00EFCC01B0A280CD92068BE
:101080000068C043C00707D0606D30436065A06D45
:101090002843A0650120F8BD20680068C043C00750
:1010A000E8D10020F8BD00001700008010B5202016
:1010B00000F000FB0120400300F0FCFA10BDF8B581
:1010C000054604464035287C0026012808D001202A
:1010D0002874206881688907890F01290ED101E0F1
:1010E0000220F8BD0168C90708D0606D20210843BF
:1010F00060650126002028743046F8BD616DFF222E
:1011000001329143022211436165C1688907890F49
:101110000091C16889088900C160206881689207D0
:101120001143816000F0B6FB074612E000F0B2FB0D
:10113000C01B0A280DD920688068002809DA606D74
:101140000221884310210843606500202874012093
:10115000F8BD206880680028E8DB2068C168009A34
:101160001143C160606D80088000401C6065C1E76C
:10117000F8B506460D464036317C01290DD00121D7
:10118000317401688A68520709D5416D20221143E4
:101190004165002030740120F8BD0220F8BD204BCD
:1011A0006A68D80547109A421E4C8A6A2B681BD081
:1011B0005B035B0B1A438A622968490305D5A16862
:1011C0000143A1600A20FFF727FF2868800302D5AA
:1011D000A0683843A0602868C0031DD5A06801211D
:1011E00009060843A06017E05B035B0B9A438A6221
:1011F0002968490302D5A1688143A160286880035A
:1012000002D5A068B843A0602868C00304D5A168CF
:10121000012000068143A16000203074F8BD000069
:101220000110000000270140406D70470068006C0D
:101230007047000070B5040006D0606D264600259A
:101240004036002802D006E0012070BDA565357447
:10125000204600F0D3F8606DC00603D4216888688A
:10126000400705D5606D1021084360653574EBE7D4
:10127000606DFF220132904302221043606588684E
:101280008207920F5B48012A02D10A68D2072BD14C
:10129000032362689B079A4205D05B429A4202D0C0
:1012A0005B009A4209D10A69920092080A6121689A
:1012B0000A6963681A430A610CE00A69920092089D
:1012C0000A6181680F22920491438160816862689B
:1012D000114381602168CA6818239A43CA60216853
:1012E000CA68A3681A43CA60816801225206914302
:1012F00081608168A28E52061143816020688168F6
:10130000C90004D48168012212071143816020685A
:10131000C168394A1140C1602069E168022825D0BE
:1013200000200143204620300278037B52035B00FB
:101330001A431143226B1143A26992031143E269DC
:10134000D20311432268D3681943D160616A0A4607
:10135000FF3AC23A05D0A26A11432268D368194302
:10136000D16042780121012A02D00BE00420D8E7A5
:101370000078002823D0606D202210436065A06DA6
:101380000843A065E06B012820681FD00169C907E8
:1013900003D0016949084900016120684169C90811
:1013A000C900416120684169A26B11434161A56593
:1013B000606D80088000401C6065002070BD206862
:1013C000C26801231B041A43C260DBE70269FF23E2
:1013D0009B009A43026120680269236CA66C1A4341
:1013E000636C33431A430261206802690A43026155
:1013F000D3E70000002701401902FEFF10B586B0B8
:10140000044614216846FEF768FF0E4920688842AA
:1014100016D10D48416B421511434163C16A012247
:101420001143C162C06A69461040059002200090D5
:1014300003200190002002900520000700F046F9EB
:1014400006B010BD0024014000100240F8B504466B
:101450004069254640350E4608280BD02068C068F4
:10146000C00709D0606D2021084360650020287402
:101470000120F8BD082700E00C2700F00BFA0090CF
:1014800015E0701C13D0002E05D000F003FA00996F
:10149000401AB0420BD920680068384207D1606D0D
:1014A000042108436065002028740320F8BD2068EB
:1014B00000683842E5D0606D01214902084360654B
:1014C0002068C16809058A0F0C21002A1BD120223F
:1014D000125D002A17D10268120714D582685307DB
:1014E0000122002B08DB43688B434360606D1302CD
:1014F00098431043606506E0606D202318436065E3
:10150000A06D1043A065A069002801D1206801608A
:101510000020F8BD70B5044621680020896849079D
:1015200021D425464035297C01291CD0012129746C
:10153000E169012904D02046FFF780FD002811D180
:10154000616D0A4A1140FF22013211436165002199
:10155000A165297422681C21116021688A6804230E
:101560001A438A6070BD022070BD0000FEF1FFFFCB
:1015700070B54379012B19D0012545710223037100
:10158000066834680A4B93409C430B6849680B43D8
:1015900093402343336001680B68C0249440A34305
:1015A0000B60057100214171084670BD022070BDBD
:1015B000FE0F000070B5040004D02079002500283B
:1015C00002D005E0012070BD6571204600F008F8EA
:1015D00002202071256101202071002070BD0000D3
:1015E00010B586B0044614216846FEF776FE0E4913
:1015F0002068884216D10D48816B420411438163F3
:10160000C16A01221143C162C06A69461040059057
:101610001020009003200190002002900520000778
:1016200000F054F806B010BD0074004000100240F5
:1016300018B50468009400688018002904D014309C
:1016400000900360002018BD0830F9E7F0B542793A
:10165000012A1FD0012242710225057103681E680C
:1016600014468C4026431E60002901680B6813D085
:1016700096040C6833400727FF043C40B34204D172
:10168000BC4202D14B682B434B6002710021417177
:101690000846F0BD0220F0BD042423400C68382524
:1016A0002C40042BF1D1382CEFD14B681343EBE7DE
:1016B0007047000010B504494A69024202D04861EF
:1016C000FFF7F6FF10BD000000040140F8B500234D
:1016D00003240125C2E032462E469E40B4463240E5
:1016E00079D00E79B607B60F012E01D0022E17D190
:1016F00086682746B6465E00B74000967646BE43EB
:10170000B646CF68009EB740764637438760466846
:101710006746BE430F79FF06FF0F9F403743476080
:101720000E79F643B6070ED0C6682746B4465E006B
:10173000B646B7406646BE43B4468F687646B74065
:1017400066463743C7600E79B607B60F022E14D12E
:10175000DE08B60036180096366A5F07B446FE0EFD
:101760000F27B646B7406646BE43B4460F69764675
:10177000B74066463743009E376206682746B44640
:101780005E00B646B7406646BE430F79B446BF0713
:10179000BF0F7646B7406646374307604E68B603CC
:1017A000B60F5AD0304F7E6B2E437E639F082F4E6C
:1017B000BF00BE190096B6680F27B4469E07360FC5
:1017C000B646B7406646BE4305273F07B446B84213
:1017D00002D100271AE040E0254FB84201D101278D
:1017E00014E0244FB84201D102270FE0224FB84243
:1017F00001D103270AE0214FB84201D1042705E0B7
:101800001F4FB84201D1052700E006277646B740B2
:1018100066463743009EB7601A4E36684F68964357
:10182000FF0300D51643174F3E607E684F6896430E
:10183000BF0300D51643134F7E60BE684F689643C2
:10184000FF0200D516430F4FBE60FE684F689643F7
:10185000BF0200D516430B4AD6605B1C0A681646C9
:10186000DA4000D037E7F8BD001002400000014028
:101870000004005000080050000C00500010005000
:10188000001C005000040140002A01D08161704713
:10189000816270470148806870470000180000208E
:1018A000024881680278891881607047180000201A
:1018B00010B5084800240168402211430160204609
:1018C00000F00AF8002801D0012401E000F026F819
:1018D000204610BD0020024070B504460D4D7D200D
:1018E0002978C000FEF7FBFC01460B480068FEF7B4
:1018F000F6FC00F089FB002809D1042C07D2002255
:101900002146401E00F022F800206C6070BD0120CE
:1019100070BD000018000020240000200448416B26
:10192000012211434163816B0204114381637047BB
:1019300000100240002805DBC106C90E01208840C6
:10194000014908607047000000E100E010B500F0B8
:10195000F3FE10BDF8B50E46050038D05E480068AD
:10196000C007C00FB04214D25B4C20684008400052
:1019700030432060FFF78EFF074605E0FFF78AFF40
:10198000C11B564881427AD82068C007C00FB042B8
:10199000F4D12878524C800705D5E068F0218843BF
:1019A000A9680843E0602878C00752D06868022818
:1019B00006D0032807D0216801280AD0890504E051
:1019C0002168890301E021688901002903DB0120E6
:1019D000F8BD4907F9E7E168890889000143E1603A
:1019E000FFF758FF0746686802280AD0032814D07A
:1019F00001281ED029E0FFF74DFFC11B3748814267
:101A00003DD8E0680007800F0228F4D121E0FFF7FD
:101A100041FFC11B3148814231D8E0680007800F87
:101A20000328F4D115E0FFF735FFC11B2B48814295
:101A300025D8E0680007800F0128F4D109E0FFF7FE
:101A400029FFC11B2548814219D8E0680007800F93
:101A5000F5D121480168C907C90FB14217D90168FA
:101A60004908490031430160FFF714FF074608E0C9
:101A700005E0FFF70FFFC11B1848814201D9032081
:101A8000F8BD15480068C007C00FB042F1D12878F2
:101A9000400706D5E068072109028843E968084342
:101AA000E0602878000707D5E0680721C90288436D
:101AB0002969C9000843E06000F01AF8E168094AA2
:101AC0000906090F515CC8400749086007480068CB
:101AD000FFF702FFF8BD000000200240881300005D
:101AE0000010024084280008240000201C00002070
:101AF00070B51A4AD3681A490C2018408D00042882
:101B00000CD04E00082810D00C2810D050680004CB
:101B1000410F0120C003491C884070BD1068C006F9
:101B200001D5084670BD284670BD304670BD98028C
:101B30000C4C000F205C1B029C0FD368641CDB0361
:101B400001D5314603E01268D20600D4294600F0E0
:101B5000DAFD22460023FEF721FB70BD0010024093
:101B600000093D0094280008FEB505007ED0F74C22
:101B7000E7680C20E668074001200004064028784A
:101B8000C00747D0082F05D00C2F0AD10120000430
:101B9000864206D1206880033CD568680028E5D0DD
:101BA00038E0012069680004814203D121680143C3
:101BB000216011E0052301221B049204994221684F
:101BC00002D111432160F1E7814321602168014086
:101BD0000091206890432060686800280DD0FFF7CE
:101BE00059FE009005E0FFF755FE0099401A642861
:101BF0007ED820688003F6D50CE0FFF74BFE0090FE
:101C000005E0FFF747FE0099401A6428F0D82068E5
:101C10008003F6D4287880075DD5E868810604D56E
:101C2000226820210A43226088430923042F0DD013
:101C30000C2F01D1002E09D000283CD021689943F7
:101C400001432160FFF726FE064628E02168490788
:101C500001D500288AD061681F22120291432A69A7
:101C60001202114361602168994300E0C7E101431A
:101C70002160FFF73DFFE16809060A0FB449895C5E
:101C8000C840B4490860B4480068FFF725FE002842
:101C900074D120E0FFF7FEFD801B0228A8D8206841
:101CA0004007F7D560681F210902884329690902A6
:101CB000084360600FE02068400840002060FFF7A4
:101CC000E9FD064604E0FFF7E5FD801B02288FD8FA
:101CD00020684007F7D42878C00661D5002F0DD0C2
:101CE000E86900284BD02068FF210131084300E05B
:101CF000EAE02060FFF7CEFD06462DE02068800573
:101D000002D5E8690028A5D0606807214903884307
:101D1000696A084360606068298C0002000A09064D
:101D200008436060686A410B0120C003491C884079
:101D3000E16809060A0F8649895CC8408549086040
:101D400085480068FFF7C8FD002817D128E0FFF795
:101D5000A1FD801B0228A1D820688005F7D5606806
:101D6000072149038843696A084360606068298CD9
:101D70000002000A09060843606011E025E12168BD
:101D8000FF20013081432160FFF784FD064604E017
:101D9000FFF780FD801B022899D820688005F7D4C2
:101DA00028786E4E000724D568690028306910D065
:101DB000012108433061FFF76DFD009005E0FFF75A
:101DC00069FD0099401A02287ED830698007F6D54F
:101DD0000FE0400840003061FFF75CFD009005E037
:101DE000FFF758FD0099401A02286DD83069800726
:101DF000F6D42878400764D500200290A06BC0007C
:101E000006D4A06B012109070843A06301200290BA
:101E100053480168C90511D4016882151143016056
:101E2000FFF738FD009005E0FFF734FD0099401AF8
:101E3000642849D84A480068C005F5D5FF20AA683B
:101E40000130824203D131690143316111E0012146
:101E50008902002A07D005231B029A4203D1326966
:101E60000A433261EFE73269824332613069884365
:101E70003061A86800280ED0FFF70CFD009006E046
:101E8000FFF708FD0099411A364881421CD8306995
:101E90008005F5D50DE0FFF7FDFC009006E0FFF7AB
:101EA000F9FC0099411A2F4881420DD8306980050C
:101EB000F5D40298002804D0A16B012000078143CB
:101EC000A1632878800600E07EE02ED52648A96927
:101ED0004314002916D0A26801210A43A260626B54
:101EE0000A436263016A19430162FFF7D3FC0646A5
:101EF00004E0FFF7CFFC801B022865D8A0688007AC
:101F0000F7D512E0A16849084900A160016A994328
:101F10000162FFF7BFFC064604E0FFF7BBFC801B35
:101F2000022851D8A0688007F7D4A86A002868D092
:101F30000C2F4FD0012636060228206816D0B04359
:101F40002060FFF7A7FC054640E0000000100240BB
:101F500084280008240000201C00002040100240BB
:101F6000007000408813000000000140B043206072
:101F7000FFF790FC074604E0FFF78CFCC01B02282B
:101F800022D820688001F7D4296BE86AE268084308
:101F9000696BFD231B049A4311430843E0602068EA
:101FA00030432060FFF776FC054604E0FFF772FC43
:101FB000401B022808D820688001F7D521E0FFF7F0
:101FC00069FC401B022801D90320FEBD2068800166
:101FD000F5D416E00128F8D0E06801210904EA6A86
:101FE000014091420BD10F2189042A6B014091429B
:101FF00005D1032189050840696B884201D0012081
:10200000FEBD0020FEBD0000094910B5401E8842FB
:1020100001D9012010BD074C60610321081F00F0A9
:102020008BFB0020A06107202061002010BD000074
:10203000FFFFFF0000E000E0F0B502462032137E13
:10204000012B21D00125157602235376066874688A
:10205000B3687027BC430F68274377600068AC07FC
:10206000A04208D0094CA04205D0094CA04202D0A1
:10207000084CA04204D180244968A34319438160DD
:10208000557600201076F0BD0220F0BD000400401F
:10209000000801400014014070B5050005D02C4631
:1020A0002034607E002802D006E0012070BD0020B0
:1020B0002076284600F010F802206076291D286856
:1020C00000F0B6FA0120A077A076E076207760775E
:1020D0006076002070BD000010B5006801218907FE
:1020E00088420CD10648816B012211438163002292
:1020F00011460F20FFF72AFC0F20FFF71BFC10BD35
:1021000000100240014620314A7E012A01D0012000
:10211000704702224A760268D36801210B43D360DC
:1021200000688A07904208D0094A904205D0094ABF
:10213000904202D0084A904204D182685207520F5E
:10214000062A02D002680A4302600020704700009D
:10215000000400400008014000140140F8B50546A5
:1021600004462035287E0026012817D00120287635
:1021700002206876226890687727FF23B8431B0205
:10218000984390600868502838D00EDC20284FD043
:1021900006DC00284CD010281ED149E00220F8BDF2
:1021A000302845D0402817D13AE060282ED070283A
:1021B00019D001221203801A0FD090420CD1CB68A3
:1021C0004A688968206800F067FA206881680122FF
:1021D00092031143816000E001260120687600200F
:1021E00028763046F8BDCB684A688968206800F0D8
:1021F00053FA2168886838438860EEE7CA684968FE
:10220000206800F05CFA5021206806E0CA6849683E
:10221000206800F065FA6021206800F048FADCE7E9
:10222000CA684968206800F04AFA40212068F4E74B
:10223000226801461046F0E7704770B50446006812
:1022400001690025C9438907002915DBC168C94315
:10225000890711D4E91E0161012020762068806978
:102260008007204602D0FFF7E7FF04E000F078F88F
:10227000204600F076F8257620680169C9434907B1
:1022800017D4C168C943490713D40421C943016164
:1022900002202076206880698005800F204602D0C9
:1022A000FFF7CAFF04E000F05BF8204600F059F8A1
:1022B000257620680169C943090716D4C168C94356
:1022C000090712D40821C94301610420207620683F
:1022D000C0698007204602D0FFF7AEFF04E000F09F
:1022E0003FF8204600F03DF8257620680169C94393
:1022F000C90617D4C168C943C90613D41021C943FC
:102300000161082020762068C0698005800F204682
:1023100002D0FFF791FF04E000F022F8204600F021
:1023200020F8257620680169C943C90708D1C1682A
:10233000C943C90704D1891E0161204600F012F883
:1023400020680169C943490609D4C168C9434906DF
:1023500005D44021C9430161204600F027F870BD33
:10236000704770470F4910B588421AD10E4C60680B
:102370000103081A1421FDF7BCFF60616369094875
:10238000002211461438FFF753F90648002114388B
:10239000FFF75CF96068142801DA401C00E00020B7
:1023A000606010BD98000020000000207047FEE72C
:1023B0001CB5002118480091164A01910260C163C2
:1023C0001205816042608163012202610246C160A0
:1023D00020321170FF235170C23343628162117346
:1023E00001638161042241634261C161FEF722FF02
:1023F000002801D072B6FEE70848009080130190D3
:1024000069460548FEF7B4FE002801D072B6FEE723
:102410001CBD000000240140280000200200000430
:10242000F0B587B014216846FDF757FF3B48C26AF4
:1024300004210A43C262C26A0A400592C26A80212C
:102440000A43C262C26A0A400592C16A0125294351
:10245000C162C16A29400591C26A02210A43C2626F
:10246000C06A2F4E08400590002231462D48FFF7E4
:102470000BFA0520002220210007FFF705FA2A4F5A
:10248000002239462948FFF7FFF968030090212010
:10249000000400240190694602942248FFF716F9CF
:1024A000029469461F48009601950394FFF70EF9C0
:1024B00020260520029469460007009601950394A2
:1024C000FFF704F900956946184802950194FFF753
:1024D000FDF8029469461548009701950394FFF7AB
:1024E000F5F81120000401906946009602950F4806
:1024F000FFF7ECF8FF2081300090019469460294C8
:102500000A48FFF7E3F8002211460720FFF71EFAFA
:102510000720FFF70FFA07B0F0BD000000100240DF
:10252000FF0F00000008005040820000000400502F
:1025300010B586B00024009401211748019402943C
:10254000039404948907059401607D21C900846087
:1025500041604B2149010461C16080214161FFF765
:102560009BFD002801D072B6FEE701200003009019
:1025700069460948FFF7F2FD002801D072B6FEE770
:10258000049404A904480594FFF756FD002801D0DF
:1025900072B6FEE706B010BD98000020FEE7704757
:1025A000704710B5FFF77CF910BD000010B594B06E
:1025B00038216846FDF791FE14210EA8FDF78DFE27
:1025C000154801680322D2029143C21489180160A0
:1025D00002200121039100900A900024400510215F
:1025E0000D900B940C9404916846FFF7BDFA0028F7
:1025F00001D072B6FEE70F200E9003200F901094CA
:102600001194012112940EA8FFF7A4F9002801D01B
:1026100072B6FEE714B010BD0070004070470000B5
:1026200010B50248FFF709FE10BD00009800002019
:10263000F0B502680124A407144D154E154FA042B1
:1026400005D0A84203D0B04201D0B84204D113460D
:10265000702293434A681A43A04205D0A84203D08F
:10266000B04201D0B84204D103231B029A43CB6885
:102670001A4380239A430B691A4302608A68C26234
:102680000968816201214161F0BD00000004004041
:10269000000801400014014030B58468FF252D0278
:1026A0001B021343AC430B432343836030BD82685A
:1026B00070239A430A4307210A438260704730B56A
:1026C000036A046A6408640004628469F025AC4308
:1026D000120122430A24A3430B438261036230BDEB
:1026E00030B5036A1024A34303628469036A0F258B
:1026F0002D031203AC432243A024A3430901194331
:102700008261016230BDF8B5040C8BB2264682B2FC
:102710005E430D0C1046370C5843360480190021D7
:10272000794116466E43370C3604801979412646A6
:102730006E438919F8BD00008307FF22DB0E9A4023
:102740008907090E9940002808DB830809489B0087
:102750001B18186890430843186070470007000F63
:102760000838830804489B001B18D8699043084325
:10277000D861704700E400E000ED00E01CB5FFF711
:1027800097F8FFF713FFFFF74BFEFFF711FE00244A
:10279000374900943548019408600846FEF70AFF5F
:1027A000002801D072B6FEE700200090024601909A
:1027B00069462F48FEF7DCFE002801D072B6FEE71E
:1027C000FFF7B6FE2A4800215C38FEF778FC0028A7
:1027D00001D072B6FEE726481430FFF793FC254C73
:1027E0002078012809D122485C38FEF793FE0028A2
:1027F00001D072B6FEE7002020701D480A215C3827
:10280000FEF724FE1A485C38FEF70EFD8005E7D57A
:1028100017485C38FEF70AFDA060FEF748FA164E2E
:10282000164F32463B46FEF745FA0B22D243FEF7DF
:1028300065FBFDF705FEE060FEF790FB05463246BE
:102840003B460091FDF7CEFF06460F462846002284
:102850000B4B0099FEF72EFA32463B46FDF7DAFFA6
:10286000FDF7EEFD206101202070B9E70074004003
:1028700084000020000000206666666666660A40E6
:102880000088C340000000000000000001020304B3
:1028900006070809030406080C1018203080807F02
:1028A0007E7D7C7B7A7978777676757473727171B8
:1028B000706F6E6E6D6C6C6B6A6A6968686766666D
:1028C000656464636362616160605F5F5E5E5D5DFD
:1028D0005C5C5B5B5A5A5959585857575656555570
:1028E000555454535352525251515050504F4F4FD0
:1028F0004E4E4D4D4D4C4C4C4B4B4B4A4A4A494920
:102900004948484847474747464646454545444461
:102910004444434343434242424241414100000058
:1029200040290008000000202800000004010008E1
:102930006829000828000020100700002001000876
:102940000100000000000000000000000000000086
:102950000000000000000000010000000400000072
:0829600000000000000020004F
:04000005080000C12E
:00000001FF
