:020000040800F2
:1000000020080020650100085D210008791E000815
:1000100000000000000000000000000000000000E0
:100020000000000000000000000000006321000844
:1000300000000000000000006121000865210008A8
:1000400077010008770100087701000877010008B0
:1000500077010008770100087701000865050008AE
:100060007701000877010008770100087701000890
:100070007701000877010008770100087701000880
:1000800077010008770100087701000800000000F0
:100090007701000877010008770100087701000860
:1000A0007701000877010008770100087701000850
:1000B0007701000877010008770100087701000840
:1000C00000F002F800F03EF80CA030C80838241800
:1000D0002D18A246671EAB4654465D46AC4201D180
:1000E00000F030F87E460F3E0FCCB6460126334274
:1000F00000D0FB1AA246AB46334318472C28000019
:100100004C280000103A02D378C878C1FAD85207B8
:1001100001D330C830C101D504680C6070470000BD
:100120000023002400250026103A01D378C1FBD813
:10013000520700D330C100D50B6070471FB51FBDFB
:1001400010B510BD00F07BF91146FFF7F7FF02F084
:10015000B7FB00F093F903B4FFF7F2FF03BC00F024
:1001600099F900000748804707480047FEE7FEE787
:10017000FEE7FEE7FEE7FEE704480549054A064BB1
:10018000704700003D220008C10000082002002046
:10019000200800202004002020040020FEB5054691
:1001A00010460C46184373D0AE468C460020AD1A5C
:1001B00001469C4167D36646002701243D46B61A96
:1001C0009D4102D313463A462124654676462F04C4
:1001D000360C3E432D0CB61A9D4104D3150C1B045E
:1001E0002B4312041034654676462F06360A3E43EA
:1001F0002D0AB61A9D4104D3150E1B022B43120281
:100200000834654676462F0736093E432D09B61A4F
:100210009D4104D3150F1B012B431201241D65467C
:100220007646AF07B6083E43AD08B61A9D4104D3E3
:10023000950F9B002B439200A41C65467646EF0762
:1002400076083E436D08B61A9D411AD392185B4159
:10025000641C16E00018764665464941B71A9D4170
:100260000191009009D36046B11A98418E468446A8
:10027000009801990025401C6941DD0752082A4376
:100280005B08641EE6D57246634603B0F0BDFFE727
:1002900000200146C046C0462A462346F5E701E055
:1002A00004C0091F0429FBD28B0701D50280801CE2
:1002B000C90700D00270704700290BD0C30702D0D5
:1002C0000270401C491E022904D3830702D5028014
:1002D000801C891EE3E70022EEE70022DFE7002210
:1002E00003098B422CD3030A8B4211D300239C4673
:1002F0004EE003460B433CD4002243088B4231D3EB
:1003000003098B421CD3030A8B4201D394463FE07E
:10031000C3098B4201D3CB01C01A524183098B42DE
:1003200001D38B01C01A524143098B4201D34B01C7
:10033000C01A524103098B4201D30B01C01A52412A
:10034000C3088B4201D3CB00C01A524183088B42B1
:1003500001D38B00C01A524143088B4201D34B009A
:10036000C01A5241411A00D201465241104670470C
:100370005DE0CA0F00D04942031000D34042534011
:1003800000229C4603098B422DD3030A8B4212D3D1
:10039000FC22890112BA030A8B420CD38901921103
:1003A0008B4208D3890192118B4204D389013AD040
:1003B000921100E08909C3098B4201D3CB01C01A15
:1003C000524183098B4201D38B01C01A5241430928
:1003D0008B4201D34B01C01A524103098B4201D316
:1003E0000B01C01A5241C3088B4201D3CB00C01A83
:1003F000524183088B4201D38B00C01A5241D9D29B
:1004000043088B4201D34B00C01A5241411A00D21B
:100410000146634652415B10104601D34042002B17
:1004200000D54942704763465B1000D3404201B596
:100430000020C046C04602BD7047704770477546F1
:1004400000F024F8AE46050069465346C008C000D7
:10045000854618B020B5FFF78FFE60BC002749081D
:10046000B6460026C0C5C0C5C0C5C0C5C0C5C0C54C
:10047000C0C5C0C5403D49008D46704710B5044613
:10048000C046C0462046FFF766FE10BD00487047D4
:10049000BC01002001491820ABBEFEE72600020087
:1004A0007047000038B50446074908480068FFF760
:1004B00016FF6043009002E00098401E00900098F4
:1004C0000028F9D138BD000040420F003400002060
:1004D00010B518480068401C1649086008460068B6
:1004E000632815D10122D103134800F059FB0020E5
:1004F0001049086011480078042803D100200F49F2
:10050000087015E00D480078401C0C4908700FE099
:100510000A48007880000A490858401E05490968C1
:10052000884205D100220121C903034800F038FBAD
:1005300010BD00001C00002000040050200000201E
:100540000800002001480249486170475BFEFFFF38
:1005500000080050014802494861704718FDFFFF3C
:100560000008005010B5202000F00AFA01204003D6
:1005700000F006FA10BD72B600BFFEE770B5044683
:100580000D4600BF5020005D012801D1022070BD42
:1005900001215020015500BF2068806804210840D7
:1005A000800800280AD0606D20210843606500BFE4
:1005B00000215020015500BF0120E8E73C49686850
:1005C000884238D02068806A29684903490B08436B
:1005D0002168886228684003400B364908400121A1
:1005E0008904884208D13448806849010843324967
:1005F00088600A20FFF756FF28684003400B2F4908
:10060000084001214904884205D12B4880684901EE
:1006100008432949886028684003400B284908405E
:100620000121090488423BD123488068090208431C
:100630002149886034E02068806A29684903490BB1
:1006400088432168886228684003400B19490840A4
:1006500001218904884205D11748806849018843EF
:100660001549886028684003400B1449084001215F
:100670004904884205D110488068490188430E49E1
:10068000886028684003400B0D4908400121090497
:10069000884205D108488068090288430649886075
:1006A00000BF00215020015500BF00206FE700006F
:1006B000011000000000044800270140000002442F
:1006C0000000014010B50446002C01D1012010BDEE
:1006D000606D002806D1A0650021502001552046FC
:1006E00000F00EF9606D10210840102806D0206837
:1006F000806804210840800800280AD0606D10211D
:100700000843606500BF00215020015500BF012053
:10071000DDE7606DFF2101318843022108436065F8
:10072000206880688007800F012807D12068006852
:10073000C007C00F002801D0012000E000200028E1
:100740003AD100BF032189076068884207D0494237
:100750006068884203D04900606888420CD12068F4
:10076000006980008008216808612068006961686C
:1007700008432168086112E0206800698000800851
:10078000216808615C4880680F21890488435A49C0
:10079000886008468068616808435749886000BFE0
:1007A0002068C068182188432168C8602068C06834
:1007B000A16808432168C8604F4880680121490644
:1007C00088434D49886008468068A18E49060843E1
:1007D000494988602068806801210907084000288D
:1007E00004D1206880680843216888602068C06858
:1007F000424908402168C8602169E068022901D1A6
:10080000042100E0002108432021095D4903084339
:100810002C21095D49000843216B0843A169890324
:100820000843E169C90308432168C968084321688E
:10083000C860FF21C231606A884207D0A16A606A3D
:1008400008432168C96808432168C8602120005D09
:10085000012813D12020005D002807D12068C0683E
:100860000121090408432168C86007E0606D202168
:1008700008436065A06D01210843A065E06B012875
:1008800017D120680069FF21890088432168086129
:10089000216C606C0843A16C084321680969084316
:1008A0002168086120680069012108432168086106
:1008B0000BE020680069C007C00F002805D0206841
:1008C0000069400840002168086120684069C0084C
:1008D000C0002168486120684069A16B0843216815
:1008E00048610020A065606D022188430121084312
:1008F00060650020EBE60000002701401902FEFFC2
:1009000010B586B00446142101A8FFF7E6FC124991
:10091000206888421ED11148406B491508430F4991
:10092000486300BF0846C06A012108430B49C862FA
:100930000846C06AC007C00F009000BF00BF022079
:100940000190032002900020039001A905200007D8
:1009500000F026F806B010BD00240140001002404F
:1009600020280AD105490978012903D10021034A29
:10097000117002E00121014A11707047040000204B
:1009800010B50446054840692040002804D00348BB
:1009900044612046FFF7E4FF10BD00000004014061
:1009A00070B502460B46002100240020E1E001263C
:1009B0008E401D6835402C46002C79D01D79AD073E
:1009C000AD0F012D04D01D79AD07AD0F022D18D14B
:1009D00090684E000325B5400646AE4330464E00B3
:1009E000DD68B54028439060506801258D4006467B
:1009F000AE43304610265D6835402D098D402843B2
:100A000050601D79AD07AD0F032D0BD0D0684E009F
:100A10000325B5400646AE4330464E009D68B540BE
:100A20002843D0601D79AD07AD0F022D15D1CD083B
:100A3000AE0015462035A8594D07EE0E0F25B540DE
:100A40000646AE4330464E07F60E1D69B5402843B4
:100A5000CD08AD0016462036705110684E000325B3
:100A6000B5400646AE4330461D79AD07AD0F4E008A
:100A7000B54028431060032636045D683540002DDC
:100A800076D03F4D6D6B012635433D4E75633D4D30
:100A90008E08B600A8598D072E0F0F25B5400646C3
:100AA000AE43304605252D07AA4202D100251AE0A3
:100AB0005EE0354DAA4201D1012514E0334DAA4232
:100AC00001D102250FE0324DAA4201D103250AE0EF
:100AD000304DAA4201D1042505E02F4DAA4201D193
:100AE000052500E006258E07360FB5402843254D25
:100AF0008E08B600A851294D28680546A54328460A
:100B0000012636045D683540002D02D00546254398
:100B10002846224D286068680546A54328460126D8
:100B200076045D683540002D02D0054625432846F1
:100B30001A4D6860A8680546A54328460126360573
:100B40005D683540002D02D0054625432846134DEB
:100B5000A860E8680546A5432846012676055D6835
:100B60003540002D02D00546254328460B4DE86050
:100B7000491C1D68CD40002D00D018E770BD000055
:100B8000001002400800014000040050000800501E
:100B9000000C005000100050001C005000040140E8
:100BA000002A01D0816100E081627047014800683D
:100BB000704700002800002002464120805C202869
:100BC0002FD100BF4020805C012801D10220704756
:100BD00001234020835400BF242341208354106804
:100BE000006840084000136818601068006801231E
:100BF0001B03984313681860106800680843136863
:100C000018601068006801231843136818602023D7
:100C10004120835400BF00234020835400BF0020A4
:100C2000D5E70220D3E710B502460B464120805C91
:100C300020282ED100BF4020805C012801D1022055
:100C400010BD01244020845400BF2424412084543A
:100C5000106800684008400014682060106801684F
:100C60000F2424020846A0430146180201431068DD
:100C7000016010680068012420431468206020246B
:100C80004120845400BF00244020845400BF002031
:100C9000D6E70220D4E7000010B50446002C01D1AD
:100CA000012010BD4120005D002805D10021402019
:100CB0000155204600F05AF82421412001552068B2
:100CC000006840084000216808600F21090660683C
:100CD000884321680861206880680121C90388432E
:100CE00021688860E068012806D10121C903A06855
:100CF00008432168886005E021218902A068084333
:100D000021688860E068022802D18002216848607A
:100D10002068406814490843216848602068C0681A
:100D20000121C90388432168C860616920690843BB
:100D3000A169090208432168C860216AE069084383
:100D40002168086020680068012108432168086064
:100D500000206064202141200155002020630021F3
:100D60004220015500209CE70080000210B586B0AB
:100D70000446142101A8FFF7B0FA154920688842FB
:100D800023D100BF1348C06A022108431149C86239
:100D90000846C06A02210840009000BF00BF03203F
:100DA0008002019012200290002003900320049002
:100DB0000620059001A90848FFF7F2FD0548806B61
:100DC0000121890508430349886306B010BD00006E
:100DD0000058004000100240000400500348006822
:100DE000034909784018014908607047280000202D
:100DF0003000002010B50024084800684021084356
:100E000006490860002000F00BF8002801D00124FA
:100E100001E000F02FF8204610BD00000020024045
:100E200070B50446104801787D20C000FFF757FADE
:100E3000064631460D480068FFF751FA054600F0B6
:100E400089FF002801D0012070BD042C07D20022A8
:100E50002146501E00F02CF80548046001E00120F6
:100E6000F2E70020F0E7000030000020340000200E
:100E70002C0000200648406B0121084304494863C8
:100E80000846806B090408430149886370470000E5
:100E9000001002400146002905DBCB06DB0E0122D3
:100EA0009A40024B1A6000BF7047000000E100E06A
:100EB00070B504460D4616462946204601F0BEFC94
:100EC00070BD0000F8B504460027202120680840C6
:100ED000202804D089012068084088427ED1202142
:100EE00020680840202800D100BF0121C9022068E5
:100EF0000840884200D100BF9948806B0121090752
:100F00000840002805D19648806B084394498863BF
:100F1000012794480068FF2101310840002816D1BC
:100F20009048006808438F490860FFF73FFE064677
:100F300006E0FFF73BFE801B642801D90320F8BDC3
:100F400088480068FF21013108400028F1D084481A
:100F50000568032109050D4060680840A84203D1D7
:100F6000A0680840A8420ED0032109046068084028
:100F7000884208D17A480068012149040840884223
:100F800001D10120DBE776484030006903210904E4
:100F900008400546002D4AD060680840A84204D0A9
:100FA00020212068084020280BD003210904A068D4
:100FB0000840A8423BD00121C9022068084088426D
:100FC00035D167484030006903210904884305464C
:100FD0006348403000690121C90400E04FE0084344
:100FE0005F4940310861084600690121C90488430E
:100FF0005B49403108610846056180152840891524
:10100000884214D1FFF7D2FD064607E0FFF7CEFD78
:10101000801B5549884201D9032090E75048403051
:101020000069012149020840400A0028EED000BFB3
:1010300000BF032109046068084088420AD148487B
:1010400000680901884303221205616811400843C2
:101050004349086000BF424840300069032212043F
:101060006168114008433E494031086100BF012FCB
:1010700005D13B48806B89058843394988632078CE
:10108000C007C00F002809D035484030C06880082C
:101090008000E168084332494031C860022120687D
:1010A0000840022809D12E484030C0680C218843EE
:1010B000216908432A494031C8600421206808405A
:1010C00004280AD126484030C06803218902884399
:1010D0006169084322494031C860082120680840FE
:1010E00008280AD11E484030C068032109038843FC
:1010F000A16908431A494031C860FF2101312068C5
:10110000084088420AD116484030C06803210904CB
:101110008843E169084312494031C8604021206892
:101120000840402809D10E484030C068090588436E
:10113000616A08430A494031C8608021206808403C
:1011400080280AD106484030C068032189048843BA
:10115000216A084302494031C8600020EFE60000E0
:10116000001002400070004088130000F8B50446EB
:101170000E46002C01D10120F8BD83480068C0074D
:10118000C00FB04218D28048006840084000304389
:101190007D490860FFF70AFD054607E0FFF706FDF9
:1011A000401B7A49884201D90320E5E77648006868
:1011B000C007C00FB042F1D10221206808400228C8
:1011C00007D17348C068F0218843A168084370497B
:1011D000C8602078C007C00F00284CD06068022883
:1011E00009D16B480068012149040840400C0028DF
:1011F00024D10120C0E76068032809D16448006851
:10120000012149060840400E002817D10120B3E70C
:101210006068012808D15E48006804210840800801
:1012200000280BD10120A7E7594800680121490295
:101230000840400A002801D101209DE75448C068B9
:1012400080088000616808435149C860FFF7AEFC20
:101250000546606802280FD107E0FFF7A7FC401B96
:101260004A49884201D9032086E74948C0680C21D1
:1012700008400828F1D134E0606803280FD107E066
:10128000FFF794FC401B4149884201D9032073E7D2
:101290003F48C0680C2108400C28F1D121E060686B
:1012A00001280FD107E0FFF781FC401B3749884236
:1012B00001D9032060E73648C0680C2108400428A3
:1012C000F1D10EE007E0FFF771FC401B2F49884287
:1012D00001D9032050E72E48C0680C21084000289F
:1012E000F1D129480068C007C00FB04218D926487C
:1012F000006840084000304323490860FFF756FC6F
:10130000054607E0FFF752FC401B2049884201D9FF
:10131000032031E71C480068C007C00FB042F1D17C
:10132000042120680840042808D11948C068072112
:1013300009028843E16808431549C860082120680C
:101340000840082809D11248C0680721C90288430B
:101350002169C90008430E49C86000F04BF80C49E8
:10136000C968F022114009090A4A515CC8400A497B
:1013700008600A480068FFF753FD0746002F01D0B8
:101380003846F9E60020F7E6002002408813000006
:101390000010024004290008340000202C00002026
:1013A00001480068704700003400002000B5FFF7D6
:1013B000F7FF0549C968072212021140090A034ACA
:1013C000515CC84000BD0000001002401429000814
:1013D00000B5FFF7E5FF0549C9680722D2021140B1
:1013E000C90A034A515CC84000BD00000010024019
:1013F00014290008F0B585B03548C06803900C2169
:1014000003980840002852D0042804D008280CD0A3
:101410000C284BD10BE02E48006810210840002812
:1014200001D02C4D00E02C4D4EE02C4D4CE00F2116
:10143000890403980840800C29490F5C0321890521
:1014400003980840800D441C2148C068012109040C
:10145000084000280BD02148394601F0C8F922463F
:10146000002301910090FEF799FE06461CE0184803
:1014700000681021084000280BD01648394601F0BA
:10148000B6F92246002301910090FEF787FE06463A
:101490000AE01148394601F0AAF9224600230191D9
:1014A0000090FEF77BFE064635460DE000BF08487B
:1014B0004068072149030840400B02900298401CF5
:1014C00001218140CD0300BF00BF284605B0F0BD1B
:1014D0000010024000093D000024F40000127A00D0
:1014E0001C290008FEB50446002C01D10120FEBDD8
:1014F000FB48C7680C210F40C0680121090408405F
:1015000001902078C007C00F002872D0082F04D0A7
:101510000C2F0FD1019888420CD1F14800680121AD
:1015200049040840400C002863D06068002860D15E
:101530000120DCE700BF012109046068884205D171
:10154000E74800680843E649086027E005210904E8
:10155000606888420ED1E24800680121890408438E
:10156000DF49086008460068012109040843DC4996
:10157000086013E0DA480068012109048843D8496B
:10158000086008460068012109040840009000BF77
:10159000D348006889008843D149086000BF60686B
:1015A000002813D0FFF702FB054606E0FFF7FEFA1E
:1015B000401B642801D9032099E7C948006801212C
:1015C00049040840400C0028F0D012E0FFF7EEFA82
:1015D000054606E0FFF7EAFA401B642801D903201C
:1015E00085E7BF480068012149040840400C0028F5
:1015F000F0D102212068084002286CD1E668202042
:101600003040002809D0B648006820210843B4497A
:1016100008602021304688430646042F04D00C2F52
:1016200034D10198002831D1AD4800680421084028
:101630008008002803D0002E01D1012057E7A848D8
:1016400040681F2109028843216909020843A4490F
:10165000486008460068092188433043A049086073
:10166000FFF7C8FE9E49C968F022114009099D4A4A
:10167000515CC8409C4908609C480068FFF7D0FB5B
:101680000290029800283FD0029830E7002E23D025
:101690009348006809218843304391490860FFF767
:1016A00085FA054606E0FFF781FA401B022801D9BA
:1016B00003201CE78A4800680421084080080028AD
:1016C000F1D0874840681F21090288432169090237
:1016D00008438349486017E081480068400840009B
:1016E0007F490860FFF762FA054606E0FFF75EFAF9
:1016F000401B022801D90320F9E67948006804213B
:10170000084080080028F1D11021206808401028E6
:1017100068D1002F37D17248006849010840400A5B
:10172000002804D0E069002801D10120DFE66C48E0
:101730004068072149038843616A08436849486053
:10174000084640680002000A218C090608436449E3
:101750004860606A400B401C01218140C803604919
:10176000C968F022114009095E4A515CC8405E49CF
:1017700008605E480068FFF753FB0290029800285B
:101780004BD00298B3E6E06900282CD0544800689A
:10179000FF210131084352490860FFF707FA054667
:1017A00006E0FFF703FA401B022801D903209EE65A
:1017B0004B480068012149020840400A0028F0D047
:1017C00047484068072149038843616A0843444900
:1017D0004860084640680002000A218C0906084358
:1017E0003F49486019E03E480068FF2101318843C5
:1017F0003B490860FFF7DAF9054606E0FFF7D6F93E
:10180000401B022801D9032071E6354800680121F8
:1018100049020840400A0028F0D108212068084009
:10182000082839D1606900281BD02D484030006954
:10183000012108432A4940310861FFF7B7F90546FD
:1018400006E0FFF7B3F9401B022801D903204EE65A
:101850002348403000690221084040080028F0D0A9
:101860001AE01F4840300069400840001C494031E0
:101870000861FFF79BF9054606E0FFF797F9401B63
:10188000022801D9032032E61548403000690221C0
:10189000084040080028F0D10421206808400428AE
:1018A0007BD1002000900E48806B890608400028FC
:1018B00006D10B48806B08430949886301200090DA
:1018C0000B480068FF2101310840002820D108485A
:1018D0000068084306490860FFF768F9054610E00C
:1018E0000010024004290008340000202C000020D1
:1018F00000700040FFF75AF9401B642801D903200B
:10190000F5E5B3480068FF21013108400028F1D017
:1019100000BFFF210131A068884205D1AD480069B0
:101920000843AC49086130E0A06800280DD1A948FF
:101930000069FF2101318843A64908610846006912
:1019400009158843A34908611FE005210902A06821
:1019500088420DD19F4800690121890208439D49B1
:10196000086108460069891508439A4908610CE036
:1019700098480069FF21013188439649086108466B
:101980000069091588439349086100BFA0680028D1
:1019900015D0FFF70BF9054608E031E0FFF706F92F
:1019A000401B8D49884201D90320A0E58948006980
:1019B000012149020840400A0028EFD013E0FFF758
:1019C000F5F8054607E0FFF7F1F8401B8249884229
:1019D00001D903208BE57F480069012149020840B5
:1019E000400A0028EFD10098012808D179484038F2
:1019F000806B01210907884376494039886300BF1D
:101A0000202120680840202852D1A06900282BD02E
:101A100000BF704840388068012108436D49403953
:101A200088600846406B012108436A494039486391
:101A30006A48006A0121490308436849086200BFF7
:101A4000FFF7B4F8054606E0FFF7B0F8401B0228A0
:101A500001D903204BE55F484038806802210840E7
:101A600040080028F0D023E000BF5A484038806882
:101A7000400840005749403988605848006A0121B1
:101A8000490388435549086200BFFFF78FF80546B0
:101A900006E0FFF78BF8401B022801D9032026E55A
:101AA0004C48403880680221084040080028F0D1A6
:101AB000A06A00284CD00C2F69D0A06A022848D117
:101AC00044484038006801210906884341494039AB
:101AD0000860FFF76BF8054606E0FFF767F8401B64
:101AE000022801D9032002E53A4840380068012164
:101AF00049060840400E0028EFD1216BE06A0843F8
:101B0000616B084333494039C968FD22120491438F
:101B1000084330494039C860084600680121090679
:101B200008432C4940390860FFF740F8054606E0B5
:101B3000FFF73CF8401B022801D90320D7E42548D1
:101B400040380068012149060840400E0028EFD0C7
:101B50003CE02048403800680121090688431D49BF
:101B600040390860FFF722F8054606E0FFF71EF847
:101B7000401B022801D90320B9E416484038006808
:101B8000012149060840400E0028EFD11EE0A06A5E
:101B9000012800D1ABE40F484038C0680190012112
:101BA000090401980840E16A88420DD10F21890497
:101BB00001980840216B884206D1032189050198CC
:101BC0000840616B884201D0012090E400208EE43F
:101BD00000700040401002408813000000000140E7
:101BE00010B50446002C01D1012010BD606A002808
:101BF00008D1FF2105316068884200D105E000214D
:101C0000E16102E00021216161610021A1625120B6
:101C1000005D002804D150200155204600F048F80E
:101C20000221512001552068006840218843216825
:101C30000860FF2105316068084021229202A168F6
:101C4000114008430122D202E168114008430222F8
:101C5000216911400843217DC907C90F08431202B9
:101C6000A169114008433822E169114008438022EC
:101C7000216A114008439201A16A1140084321687A
:101C80000860A069000C042108401022616A11401C
:101C90000843216848602068C069D10188432168F1
:101CA000C8610020606501215120015500209CE79A
:101CB00010B586B00446142101A8FEF70EFB224998
:101CC000206888423ED12148406B891408431F494F
:101CD000486300BF0846C06A012108431B49C86227
:101CE0000846C06AC007C00F009000BF00BF00BF19
:101CF0000846C06A022108431449C8620846C06AFF
:101D000002210840009000BF00BFC02001900220C7
:101D1000029000200390032004900020059001A968
:101D200005200007FEF73CFE0820019002200290EB
:101D300000200390032004900020059001A904488E
:101D4000FEF72EFE06B010BD00300140001002402C
:101D50000004005070B504462546681E09498842B3
:101D600001D901200CE0681E074948610321081FC2
:101D700000F064FD0020044988610720086100200C
:101D800070BD0000FFFFFF0000E000E010B504465A
:101D9000002C01D1012010BDA069002800D000E076
:101DA00000BFA06F002805D10021742001552046F6
:101DB00000F02CF82420A06720680068400840004C
:101DC00021680860204600F0EDFA012800D1E2E722
:101DD000606A002802D0204600F031FA206840688E
:101DE0000921C902884321684860206880682A2147
:101DF00088432168886020680068012108432168C1
:101E00000860204600F094FAC5E7000010B586B0DF
:101E10000446142101A8FEF760FA1549206888429B
:101E200023D11448806B0121490408431149886378
:101E300000BF0846C06A012108430E49C86208462F
:101E4000C06AC007C00F009000BF00BF0C20019007
:101E500002200290002003900320049004200590AB
:101E600001A905200007FEF79BFD06B010BD00008C
:101E7000004400400010024000BFFEE71CB50020F7
:101E8000009001901C481D49086000211B48C16357
:101E90000320800719494860002118488160816348
:101EA000012101610021C160001D01774177001F00
:101EB0008162FF21C231416200212430017204217C
:101EC00024384161002101638161012141630021C6
:101ED000C161FEF7F7FB002801D0FEF74CFB084874
:101EE00000908013019069460448FEF747FB0028E4
:101EF00001D0FEF740FB1CBD00240140380000204B
:101F00000200000400B587B0142102A8FEF7E5F92D
:101F100000BF5448C06A042108435249C8620846B9
:101F2000C06A04210840019000BF00BF00BF4D48B7
:101F3000C06A802108434B49C8620846C06A8021B4
:101F40000840019000BF00BF00BF4648C06A0121A1
:101F500008434449C8620846C06AC007C00F0190E0
:101F600000BF00BF00BF0846C06A022108433D49C8
:101F7000C8620846C06A02210840019000BF00BF45
:101F8000002239493948FEF70BFE002220210520A6
:101F90000007FEF705FE002235493648FEF700FE31
:101FA00001204003029021200004039000200490AF
:101FB00002A92E48FEF7F4FC2B4802900120039062
:101FC00000200490059002A92848FEF7E9FC202093
:101FD00002900120039000200490059002A90520A2
:101FE0000007FEF7DDFC0120029000200390012095
:101FF000049002A91F48FEF7D3FC1D48029001205F
:10200000039000200490059002A91A48FEF7C8FC2E
:102010000120C003029000200390049002A9052033
:102020000007FEF7BDFC2020029011200004039061
:102030000120049002A90F48FEF7B2FCFF20813076
:10204000029000200390049002A90A48FEF7A8FC21
:10205000002211460720FEF72BFF0720FEF71AFF8C
:1020600007B000BD00100240FF0F00000008005044
:10207000508200000004005010B514481449086054
:10208000E120C00048600021114881600121C16049
:102090000021016141618161C1610162FEF7FCFDC6
:1020A000002801D0FEF767FA00210948FEF784FDF9
:1020B000002801D0FEF75FFA00210548FEF7B3FDC6
:1020C000002801D0FEF757FA10BD0000005800406C
:1020D0009400002010B50E480E490860FF2005301E
:1020E000486000210B488160C160016141610121AC
:1020F000490281610021C16101624162816207215F
:10210000C162FFF76DFD002801D0FEF734FA10BD63
:1021100000300140E000002010B50E480E49086074
:10212000E1204002486000210B488160C1600161EC
:102130000C21416100218161C161016200200649D9
:1021400048620846FFF722FE002801D0FEF713FA86
:1021500010BD0000004400403801002000BFFEE731
:102160007047704710B5FEF739FE0E480068401CF6
:102170000C490860FEF7ACF90B480068401C0A499E
:10218000086008460068042802D1FEF7DBF908E081
:1021900005480068092804D1FEF7DCF9002002494F
:1021A000086010BD000000202400002000B59DB094
:1021B00038210FA8FEF791F814210AA8FEF78DF830
:1021C00028216846FEF789F81B4800680321C902E8
:1021D00088430121C90240181749086010200F9058
:1021E0000120169000201790052040031890002031
:1021F00019900FA8FFF776F9002801D0FEF7BBF978
:102200000F200A9000200B900C900D900E90002152
:102210000AA8FEF7ABFF002801D0FEF7ACF90220B8
:102220000090002004906846FEF74CFE002801D084
:10223000FEF7A1F91DB000BD007000407047818C11
:10224000C907C90F002908D0016849680122520452
:102250009143826A1143026851600222416A11402F
:10226000022907D101684968D2039143C26A114328
:10227000026851600422416A1140042907D10168B3
:10228000496812049143026B1143026851600822AD
:10229000416A1140082907D1016849681203914336
:1022A000426B1143026851601022416A11401029AB
:1022B00007D10168896812029143826B1143026859
:1022C00091602022416A1140202907D10168896864
:1022D00012029143C26B1143026891604022416A2D
:1022E0001140402915D10168496892039143026C5D
:1022F00011430268516001221205016C914208D11C
:1023000001684968032252059143426C11430268F7
:1023100051608022416A1140802907D101684968D3
:1023200012039143826C11430268516070470000B0
:1023300038B50446002180200151FEF737FC0546E0
:10234000206800680821084008280BD114482B4653
:10235000002289040090204600F0BCF9002801D03A
:10236000032038BD206800680421084004280BD1F0
:102370000B482B46002209050090204600F0AAF9E0
:10238000002801D00320ECE72020A067E0670020B0
:10239000206600BF00217420015500BF0020E0E747
:1023A000FFFFFF01F0B587B0044600200390BE494F
:1023B0002068884200D100E000BF2169A06808437E
:1023C00061690843E1690843059020680068B749DE
:1023D0000840059908432168086020684068032187
:1023E00009038843E168084321684860A0690590B3
:1023F000AD492068884203D0206A059908430590BA
:10240000206880680B2109028843059908432168E8
:10241000886000BFA6492068884217D1A548C068D7
:102420008007800F002806D0012808D0022804D099
:10243000032808D105E0012607E0022605E004266E
:1024400003E0082601E0102600BF47E09A49206813
:10245000884217D19748C0680C210840002806D050
:10246000042808D0082804D00C2808D105E000264C
:1024700007E0022605E0042603E0082601E0102616
:1024800000BF2BE08D492068884201D1002625E05D
:102490008B492068884201D100261FE082492068CC
:1024A00088421AD18348C068032189020840002865
:1024B00008D001218902401A08D0401A04D0401ADD
:1024C00008D105E0002607E0022605E0042603E027
:1024D000082601E0102600BF00E0102600BF724968
:1024E0002068884251D1002E06D0022E08D0042E3A
:1024F00012D0082E17D113E0FEF758FF054616E05C
:102500006C4840380068102108400009002801D0BC
:102510006C4D00E06C4D0AE0FEF76CFF054606E0EE
:102520000125ED0303E000250120039000BF00BF5B
:10253000002D0AD0606841004018A84203D86068A6
:102540000003A84202D201200390A6E06068029036
:102550002846FF21013100F04AF962685208002341
:102560008018594101910090029AFDF717FE074625
:10257000032109028F4205D35448874202D82068BC
:10258000C7608AE00120039087E00121C903E06968
:10259000884247D1330000F042F909060A0E211A99
:1025A0002121211E2100FEF701FF05461AE0FEF75A
:1025B0000FFF054616E03F484038006810210840EC
:1025C0000009002801D03F4D00E03F4D0AE0FEF732
:1025D00011FF054606E00125ED0303E0002501207B
:1025E000039000BF00BF002D57D06A0063685B08EE
:1025F000D0186168FDF773FE87B2102F0FD33448EF
:1026000087420CD832480F38384004903807400FC2
:1026100004990843049004982168C8603DE00120B3
:1026200003903AE0330000F0FAF809060A0E211A86
:102630002121211E2100FEF7B9FE05461AE0FEF712
:10264000C7FE054616E01B484038006810210840C8
:102650000009002801D01B4D00E01B4D0AE0FEF7E9
:10266000C9FE054606E00125ED0303E00025012033
:10267000039000BF00BF002D0FD061684A085019B9
:10268000FDF72DFE87B2102F05D31148874202D8DF
:102690002068C76001E00120039000206066A0660A
:1026A000039807B0F0BD000000480040F369FFEF59
:1026B000003801404010024000440040004C0040FF
:1026C0000050004000093D000024F400FFFF0F000F
:1026D000FFFF0000FFB581B004460D4617460A9E75
:1026E00078E0701C002875D0FEF760FA0499401A53
:1026F000B04201D8002E2DD100BF00F0DBF80090D1
:10270000012000F0DAF820680068FF21A131884339
:1027100021680860009800F0D0F800BF00BF00F00A
:10272000C9F80090012000F0C8F8206880684008CF
:10273000400021688860009800F0BFF800BF2020AA
:10274000A067E06700BF00217420015500BF03208F
:1027500005B0F0BD2068006804210840002839D089
:102760002068C06949020840C00A002832D00846E3
:102770002168086200BF00F09DF80090012000F081
:102780009CF820680068FF21A13188432168086017
:10279000009800F092F800BF00BF00F08BF80090A6
:1027A000012000F08AF82068806840084000216815
:1027B0008860009800F081F800BF2020A067E067E3
:1027C00020218020015100BF00217420015500BF4D
:1027D0000320BDE72068C0692840A84201D101203C
:1027E00000E00020B84200D17BE70020B0E7F8B558
:1027F00082B28BB2040C0D0C1046584300212646C1
:102800005E43370C36048019794116466E43370C07
:1028100036048019794126466E438919F8BD30B4D3
:102820007446641E2578641CAB4204D3635D5B0070
:10283000E31830BC18471D46F8E7000010B5002823
:1028400019DB1A4A03231B02D21883089B00D258B3
:102850008307DC0EFF23A3409A438B071B0E8407DC
:10286000E40EA3401A43114B032424021B198408CD
:10287000A4001A5118E00E4A03071B0F083B9B08DF
:102880009B00D2588307DC0EFF23A3409A438B079B
:102890001B0E8407E40EA3401A43054B0407240FC4
:1028A000083CA408A4001A5110BD000000E100E09B
:1028B0001CED00E0EFF31080704780F31088704744
:1028C000FEF798FAFFF772FCFFF71CFBFFF7D6FA4A
:1028D000FFF7D2FBFFF7FEFBFFF71EFC00224021B3
:1028E0000648FEF75DF908E0054800687D21C9004B
:1028F000884202D1002002490860F5E70004005038
:10290000000000200000000000000000010203049D
:10291000060708090000000001020304030406087A
:102920000C1018203000000048290008000000208A
:102930003800000004010008802900083800002049
:10294000E80700002001000800000000010000006E
:10295000140000001E0000002800000032000000EB
:102960003C0000000000000000000000000000002B
:102970000000000004000000010000000000200032
:04000005080000C12E
:00000001FF
